:020000040800F2
:10000000000001200923000805230008052300083B
:100010000523000805230008052300080000000050
:1000200000000000000000000000000005230008A0
:100030000523000800000000052300080523000830
:1000400005230008052300080523000805230008F0
:100050000523000805230008052300086D0C00088F
:1000600005230008550C000805230008091A00089C
:1000700005230008052300080523000805230008C0
:100080000523000805230008910100080523000846
:1000900005230008052300080523000805230008A0
:1000A0000523000805230008052300080523000890
:1000B000E5190008052300080523000805230008AA
:1000C0000523000805230008052300080523000870
:1000D00005230008691E0008052300080523000801
:1000E000DD0C00080523000805230008052300088F
:1000F0000523000805230008052300085102000815
:100100000523000805230008C10D00080523000889
:100110000523000805230008C1200008991E0008D7
:10012000052300080523000805230008052300080F
:100130004FF4804300BF013BFCD1704708B500F08D
:100140004FFE01F009FD01F06BFA01F02DFD01F009
:1001500099FB00F0ABFAFFF7EBFFF4E708B5054BAE
:1001600000221A605A600522034B1A80012001F018
:100170003FFE08BD7C080020002C014008B5042289
:10018000024B1A80002001F033FE08BD002C014014
:1001900038B54FF49061284802F018FB28B3264C7C
:1001A0004FF49061204602F01FFB24490B68E06B7E
:1001B000234A22F81300256C03F5106022F8105032
:1001C000656C03F5905022F81050A46C03F558505C
:1001D00022F8104001330B601A4A1268934204D38C
:1001E0000422194B1A8001F0F1FD4FF49061174879
:1001F00002F0ECFAF0B1154C4FF49061204602F099
:10020000F3FA0E494B68E56B0D4A03F5D85022F816
:100210001050256C03F5105022F81050656C03F552
:10022000345022F81050A46C03F57C5022F8104092
:1002300001334B6038BD00BF002401407C08002022
:10024000C82F002008000020002C01400028014099
:1002500008B54FF49061024802F0C6FA08BD00BF2D
:10026000003C014070B408240023164A02250126F0
:10027000556110F0800F14BF16615661BFF34F8FA8
:1002800000BF00BF00BF00BF15615B00DBB291681B
:10029000C1F3C0010B434000C0B2BFF34F8F00BF9A
:1002A00000BF00BF00BF013CE2D10221054A5161FD
:1002B000BFF34F8F00BF00BF00BF00BF184670BC28
:1002C000704700BF0014014070B50422134B5A61FF
:1002D000BFF34F8F00BF00BF00BF00BF4FF6FF74DA
:1002E000D726FF253046FFF7BDFF2846FFF7BAFFA8
:1002F000BFF34F8F00BF00BF00BF00BF013C02D063
:1003000010F0800FEED10422044B1A61BFF34F8F1F
:1003100000BF00BF00BF00BF70BD00BF00140140A0
:1003200070B506460C46154604221B4B5A61BFF3B6
:100330004F8F00BF00BF00BF00BFE820FFF792FF54
:10034000C6F30740FFF78EFFC6F30720FFF78AFFCB
:10035000F0B2FFF787FFFF20FFF784FFFF20FFF7D2
:1003600081FFFF20FFF77EFFFF20FFF77BFF45B1F6
:100370002544FF263046FFF775FF04F8010BAC4219
:10038000F8D10422044B1A61BFF34F8F00BF00BFA6
:1003900000BF00BF70BD00BF0014014070B506462D
:1003A0000C4615460422224B5A61BFF34F8F00BF03
:1003B00000BF00BF00BF8420FFF754FF0020FFF7FD
:1003C00051FF0020FFF74EFF0020FFF74BFF35B134
:1003D000254414F8010BFFF745FFAC42F9D1144C4A
:1003E00004252561BFF34F8F00BF00BF00BF00BFD2
:1003F000FFF76AFF6561BFF34F8F00BF00BF00BF0B
:1004000000BF8320FFF72EFFC6F30740FFF72AFF48
:10041000C6F30720FFF726FFF0B2FFF723FF2561A1
:10042000BFF34F8F00BF00BF00BF00BF70BD00BF54
:100430000014014038B51D4C04256561BFF34F8F92
:1004400000BF00BF00BF00BF3D20FFF70BFF2A2009
:10045000FFF708FF8020FFF705FFA620FFF702FF48
:100460002561BFF34F8F00BF00BF00BF00BFFFF784
:100470002BFF6561BFF34F8F00BF00BF00BF00BF00
:100480003D20FFF7EFFE2A20FFF7ECFE7F20FFF76D
:10049000E9FE9A20FFF7E6FE2561BFF34F8F00BF0C
:1004A00000BF00BF00BFFFF70FFF38BD00140140C1
:1004B000002A00F09E802DE9F04F83B0054600F140
:1004C000020A00F1040900F1060800F1080C00F12D
:1004D0000A0E00F10C0700F10E0B019200260095A8
:1004E000B1F92620B5F90000B1F92440B5F9023080
:1004F00003FB04F300FB0232B1F922303AF9024F58
:1005000004FB0323B1F9202039F9020F00FB023468
:10051000B1F91E3038F9022F02FB0340B1F91C304B
:100520003CF9022F02FB0302B1F91A303EF9024FE7
:1005300004FB0323B1F9182037F9020F00FB023442
:10054000B1F916303BF9022F02FB0340B1F9143028
:10055000B5F9122002FB0302B1F91230B5F91440CB
:1005600004FB0323B1F91020B5F9160000FB023497
:10057000B1F90E30B5F9182002FB0340B1F90C3087
:10058000B5F91A2002FB0302B1F90A30B5F91C4093
:1005900004FB0323B1F90820B5F91E0000FB023467
:1005A000B1F90630B5F9202002FB0340B1F904305F
:1005B000B5F9222002FB0302B1F90230B5F924009B
:1005C00000FB0323B1F90020B5F9260000FB02333C
:1005D000002BBCBF03F5FF437F33DB13009A13806E
:1005E00001360235019B9E427FF479AF03B0BDE82E
:1005F000F08F70479B1A2AD02DE9F041864600EB18
:10060000430C01EB420747F6FF7818E033F9025B31
:1006100034F8026B06FB0500BB42F7D100E0002076
:1006200003460028B8BF00EB0803DB1303F30E03F7
:100630001BB223EAE3732EF8023BE64505D0002AFD
:10064000EDD00B4674460020E0E7BDE8F08170472E
:10065000014B1860704700BF00000020014B186874
:10066000704700BF0000002010B57B2001F07EFC29
:10067000072001F07BFC002001F078FC032001F052
:1006800075FC084C206801F071FC2068193001F0FD
:100690006DFC7D2001F06AFCFFF74AFD024807F07F
:1006A0004DF810BD00000020BC900008074B1B68EF
:1006B000092B09D1064B1B68022B05D10422034BE1
:1006C0001A600022024B1A60704700BF0000002031
:1006D000840800200000000008B5E4220021114831
:1006E00006F0AAFF242200210F4806F0A5FF0022F1
:1006F0000E4B5A600E4B1A600E4B46F20B0199607E
:1007000046F20200D8604FF6FF7058611960A3F5F9
:1007100078439A840D221A80BFF34F8FBFF36F8FF7
:1007200000BF08BD3C2D0020D82C0020001000E0A8
:10073000FC2C002000040140064A0023136046F20E
:1007400002015161A2F578421380BFF34F8F00BFC1
:10075000704700BF0004014008B57B2001F006FC93
:10076000412001F003FC002001F000FC132001F007
:10077000FDFB3B21074801F007FC5430C0B201F0FB
:10078000F5FB7D2001F0F2FBFFF7D2FC024806F0FA
:10079000D5FF08BD002D0020C890000870B490F867
:1007A0004B60731E002B11DD00214C1C00EB8105FA
:1007B0006A682D68521B002AB8BF524240F82120B7
:1007C00021469C42F1D10E2B01DD10E0002303F104
:1007D0003B040444002200F8232000EB83014A700C
:1007E0008A70CA7004F8012F01330E2BF3DD013E2D
:1007F00026F0010680F84B6070BC70472DE9F0418F
:1008000090F84B80B8F1000F26D0C44600F13B06AB
:1008100000239E461D4650F82340254416F8017FCC
:1008200007B1A64401336345F5D1ADB10C464FF491
:100830007A7303FB0EFEBEFBF5F313605FFA88F2DA
:100840000848A2FB000101EBC2012A46002306F082
:10085000E7FC2060BDE8F081002313600B60BDE879
:10086000F08100BF0068C46190F83C304BB900F1E2
:100870003C02012312F8011F21B901330F2BF9D1DA
:1008800000E0002350F82300704700BF2DE9F84333
:10089000204B1F68204C214E214D23683A4631469B
:1008A0002846FFF7A7FE23683A46314605F59050E3
:1008B000FFF7A0FE2368B3F1800613D0AA1E03F54C
:1008C00055513F31A5F5D84303EB410100240025E4
:1008D00032F8023F03FB03F3E41845EBE3758A4269
:1008E000F6D101E0002400252046294606F092F9C1
:1008F00004460D46304606F04DF902460B462046AA
:10090000294606F0E7FA05F0E1FE06F069FC80B240
:10091000BDE8F883B8900008080000207490000833
:10092000C89B00208268032A10D910B50C460346E4
:10093000013A0748A2FB000101EB02115A681B684B
:10094000D21A002306F06CFC206010BD704700BF77
:1009500000D088C32DE97043B74E3046FFF784FFBF
:10096000044606F14C00FFF77FFF054606F19800AC
:10097000FFF77AFFB14B651B002DB8BF6D429D613B
:10098000201A0028B8BF4042D861002283F82020F6
:1009900096F84B30032B21D8A84B1A765A769A76C4
:1009A000DA761A775A779A77DA771A715A719A71D2
:1009B000DA7183F82F2083F8302083F8312083F810
:1009C00032201A705A709A70DA7083F8232083F8F4
:1009D000242083F8252083F8262014E0974C012357
:1009E00084F82030944D2846FFF7D8FE04F12F02FA
:1009F00004F123012846FFF701FFD4F82F3063608C
:100A0000D4F8233023608C4B93F89730032B1ED8F7
:100A10008A4B00221A765A769A76DA761A735A73C5
:100A20009A73DA7383F8332083F8342083F83520FF
:100A300083F836201A725A729A72DA7283F8272073
:100A400083F8282083F8292083F82A2017E07B4C9C
:100A500094F8203043F00A0384F82030784D28467B
:100A6000FFF79CFE04F1330204F127012846FFF74B
:100A7000C5FED4F83330E360D4F82730A3606E4B62
:100A800093F8E330032B1ED86C4B00221A775A7769
:100A90009A77DA771A755A759A75DA7583F8372066
:100AA00083F8382083F8392083F83A201A745A746E
:100AB0009A74DA7483F82B2083F82C2083F82D2085
:100AC00083F82E2017E05D4C94F8203043F0140397
:100AD00084F820305B4D2846FFF760FE04F13702B2
:100AE00004F12B012846FFF789FED4F83730636103
:100AF000D4F82B302361514BD3F82320002A60D047
:100B000000234BA1D1E9000106F08AFB04460D4603
:100B10004A4EB06980464FF00009001849EB0901C0
:100B200010EB080041EB0901CB0043EA5073C2000F
:100B300012EB080043EB09010B0143EA10730201B9
:100B4000101A63EB01010B0143EA10730201101A42
:100B500063EB01018B0143EA906382011046194661
:100B600022462B4606F05CFBB061F06980464FF0F0
:100B70000009001849EB090110EB080041EB0901DD
:100B8000CB0043EA5073C20012EB080043EB0901AB
:100B90000B0143EA10730201101A63EB01010B0110
:100BA00043EA10730201101A63EB01018B0143EA5F
:100BB000906382011046194622462B4606F030FB10
:100BC000F061FFF763FE1D4CA4F821001E4D214685
:100BD0002846FFF7A7FE2368C4F8233004F1080174
:100BE00005F10C00FFF79EFEA368C4F8273004F15E
:100BF000100105F11800FFF795FE2269C4F82B20BB
:100C0000124B6168A3F8CE102168A3F8CC10E168FC
:100C1000A3F80211A168A3F800116169A3F83611C5
:100C2000A3F834210A4806F089FDBDE8708300BFAF
:100C300000D088C3100000003C2D0020002D0020B3
:100C4000882D0020D42D0020D82C0020902E0020AC
:100C5000D89000080822034B5A61034A13680133F5
:100C60001360704700040140FC2C002010B4174BA7
:100C70005A68022103F1C04303F574435961144BD0
:100C800093F8E3300E2B0ED8114903F1260041F8FA
:100C9000202010488068CC18C0F3400084F8D400AD
:100CA000013381F8E3300B4B9B6813F0020F08D03F
:100CB000094B1B6A0BB908498A61074901330B626A
:100CC000CA61BFF34F8F10BC704700BF001000E037
:100CD0003C2D002000080140D82C002010B4324BDD
:100CE0005B6913F4804F2CD0304B5A684FF480412D
:100CF00003F1C04303F5744359612D4B93F89730CA
:100D00000E2B0ED82A4903F1130041F82020294860
:100D10008068CC18C0F3803084F88800013381F8F3
:100D20009730244B9B6813F4804F08D0224B5B69AB
:100D30000BB92149CA60204901334B610A61BFF3F5
:100D40004F8F194B5B6913F4005F2AD0174B5A6819
:100D50004FF4005103F1C04303F574435961144B40
:100D600093F84B300E2B0CD8114941F8232013482F
:100D70008068CC18C0F3403084F83C00013381F81F
:100D80004B300E4B9B6813F4005F08D00A4B9B68F6
:100D90000BB909490A60084901338B604A60BFF307
:100DA0004F8F10BC704700BF00040140001000E0EE
:100DB0003C2D0020000C0140D82C002000180140E0
:100DC00008B5064A00231380138202F578421360A7
:100DD000FFF7B2FC00F0FAFF08BD00BF000C0040B6
:100DE0002DE9F0478EB0D44AD36843F08073D360C6
:100DF000D24B1A6842F001021A6000255D604FF480
:100E0000004003F0BBFE0121032003F041FF01215C
:100E1000CB4803F059FF01214CF67D6003F046FFFB
:100E2000C84B44F240021A60C74A5A6003F5806317
:100E3000C64A1A6002F1805203325A60C44A4FF027
:100E4000884313604FF04433536002F58062C14918
:100E5000116001F5E02101F21111516002F580628B
:100E600013605360BC4B4FF480575F609D604FF43C
:100E7000A0725A61FFF7DEFA00F072FCB74C204610
:100E800002F0FAFAB64B0393B64B049305954FF470
:100E9000086ACDF818A007954FF08009CDF820908A
:100EA0004FF48078CDF824804FF480660A960B9535
:100EB0000C970D9503A9204602F072FB0122022136
:100EC000204602F0A9FB0121204602F097FB04F521
:100ED0008A64204602F0D0FAA34B0393A34B0493F9
:100EE0000595CDF818A00795CDF82090CDF8248071
:100EF0000A960B950C970D9503A9204602F050FB1E
:100F00000121204602F07AFB994C204601F090FA2C
:100F1000039501268DF810608DF811504FF4602371
:100F2000059306958DF81C6003A9204601F0B2FADE
:100F3000072332460821204601F036FB3146204681
:100F400001F0E2FA0421204601F0F2FB05233246CB
:100F50000B21204601F0C0FB052302220D21204673
:100F600001F0BAFB052303220621204601F0B4FB61
:100F7000052304220C21204601F0AEFB3946204611
:100F800001F088FB3146204601F08AFB4FF4906166
:100F9000204601F029FC32464FF49061204601F0D2
:100FA000BFFA3146204601F0A3FA204601F0C4FA08
:100FB000204601F0C7FA0028FAD16D4801F0C6FAC0
:100FC0006B4C204601F0C8FA0028FAD1694C204643
:100FD00001F02EFA0023039301258DF810508DF8AF
:100FE00011304FF46022059206938DF81C5003A92E
:100FF000204601F04FFA0421204601F099FB052319
:101000002A460721204601F067FB052302220E2114
:10101000204601F061FB052303220F21204601F049
:101020005BFB052304220A21204601F055FB4FF407
:101030008051204601F02EFB2946204601F030FB6E
:101040004FF49061204601F0CFFB2A464FF49061A7
:10105000204601F065FA2946204601F049FA20466B
:1010600001F06AFA204601F06DFA0028FAD14148F1
:1010700001F06CFA3F4C204601F06EFA0028FAD1DC
:101080003D4C204601F0D4F90023039301258DF84F
:1010900010508DF811304FF46022059206938DF8B0
:1010A0001C5003A9204601F0F5F907232A46022126
:1010B000204601F079FA2946204601F025FA294612
:1010C000204601F015FA204601F036FA204601F0DC
:1010D00039FA0028FAD1284801F038FA264C20467F
:1010E00001F03AFA0028FAD1684604F09BFC31235B
:1010F000ADF804302323ADF800300024ADF80640ED
:10110000ADF802401D4E6946304604F027FB3023FF
:10111000ADF80C300125ADF80E50ADF81250022399
:10112000ADF8143003A9304604F034FC29463046AB
:1011300004F0ACFC24E000BFF0ED00E0001000E0A3
:101140003F00042000080140B34443444044443479
:1011500000100140334344440000014008000240B5
:101160004C240140941900204C3C0140940800207C
:101170000024014000280140003C0140002C0140B7
:101180002146304604F074FC4FF080439C841C855B
:1011900041F61F4199859D811C829C8005221A8001
:1011A00003F500639C841C8542F210729A859D822F
:1011B0001C8260221A8303F500639C8447201885F3
:1011C00042F20F729A859D811C829C8004261E80AB
:1011D00003F580639C8418859A859D821C829D817D
:1011E0009C801C80A3F500639C8419859A859D8250
:1011F0001C829D814FF416430393ADF81040ADF867
:101200001240ADF81440ADF818400C23ADF816307C
:10121000274E0DEB0301304605F038F82A4640F220
:101220002551304605F0C0F82946304605F0AEF8A5
:10123000204B4FF003121A601C621F4B4FF40062E8
:10124000C3F880211A604FF08052C3F880211A60E1
:101250004FF40002C3F884215A604FF48002C3F8AF
:1012600084215A604FF48022C3F884215A60C3F865
:1012700080211A604FF40042C3F884215A60202272
:10128000C3F884215A608022C3F880211A604FF489
:101290000072C3F880211A60C3F880211A604FF4ED
:1012A0008072C3F884215A600EB0BDE8F08700BF99
:1012B000003801400074004000E100E02DE9F041F9
:1012C000584B1F68B7F1800E15D0821E07F10047FA
:1012D000813F00EB47074FF6FF760024254632F8A2
:1012E000023F1D449C4238BF1C469E4228BF1E46FA
:1012F0009742F4D103E04FF6FF76002425460C8098
:101300004E80B5FBFEF585F31005AFB28F807F2FC1
:1013100004D9A4B2B3B2E31AFF2B0BDC00238B7108
:10132000CB7181F8303081F8313081F8323081F87A
:1013300033302DE00688BE4294BF002601260023EC
:101340008B71CB71BEF1000F22D002464FF0010825
:101350009C4656B11488BC4211D8CC88261D21F871
:1013600016300134CC80664609E01488BC4206D9A8
:10137000CC88261D21F816300134CC804646CC8816
:101380000E2C03D8013302329E45E2D1022C04D840
:10139000831E00F2FE74002231E0B1F808E04F89AC
:1013A000BE450AD200EB4E0300EB4706002233F89D
:1013B000024B22449E42FAD100E00022CEEB070EFF
:1013C000B2FBFEF2ADB2954234BF8A85CA858E89E2
:1013D000BE420AD900EB470300EB4600002233F877
:1013E000024B22448342FAD100E00022F61BB2FBFA
:1013F000F6F2954234BF8A85CA85BDE8F08133F89C
:10140000020F02449C42FAD1920A8A85CA850023BF
:1014100081F8303081F8313081F8323081F8333062
:10142000BDE8F0810800002030B40D4649B1034604
:1014300000EB4104002033F8021B0844A342FAD118
:1014400000E00020B0FBF5F030BC704770B50446FA
:101450000E46FFF7E9FF7EB1224604EB4601002469
:10146000002532F8023B1B1A03FB03F3E41845EB9B
:10147000E3758A42F5D101E00024002532460023BD
:101480002046294605F0CCFE70BD00BF2DE9704313
:101490000E4679B1014600EB46000024002531F8E4
:1014A000023B9B1A03FB03F3E41845EBE37581420F
:1014B000F5D101E0002400252046294605F0AAFBCD
:1014C00004460D46304605F065FB02460B462046B5
:1014D000294605F0FFFC05F0F9F805F081FEBDE8AE
:1014E000708300BFF8B505460C46464E3368464A41
:1014F00012684649FFF77EF83668B6F1800750D08B
:10150000AB1E06F10046813E05EB46064FF6FF7026
:10151000002133F8022F914238BF1146904228BF74
:101520001046B342F5D12180608089B280B2091A99
:10153000FF290BDC0023A371E37184F8303084F8B9
:10154000313084F8323084F8333048E0A28828887B
:10155000904294BF002001200023A371E37129462B
:101560004FF0010C9E4650B10E88964211D8E0888B
:10157000061D24F816300130E080704609E00E8820
:10158000964206D9E088061D24F816300130E08026
:101590006046E6880E2E0CD8013302319F42E2D11C
:1015A0001DE00023237063704FF0FF33A370E370DE
:1015B000C0E72089033634F81610091A05EB4000FD
:1015C000FFF764FF60852085E084002384F83030D5
:1015D00084F8313084F8323084F83330F8BDA28892
:1015E0004FF480612846FFF751FF60852085E08435
:1015F000002384F8303084F8313084F8323084F8B5
:101600003330F8BD08000020B8900008749000083E
:10161000024B187059605A70704700BF880800204C
:1016200008B54E4B1B78013B482B00F29580DFE854
:1016300003F040474E939393939393939393939391
:1016400093555C936393939393939393939393930F
:10165000933993322B93259393936A719393939336
:10166000939393939393939393939393939393934A
:1016700093787F939393939393868D000022374BB7
:101680001A7000F093FC08BD344B00221A705868A1
:1016900000F0A2FC08BD314B00221A70586800F01F
:1016A000AFFC08BD2D4B00221A70586800F0CEFA2E
:1016B00008BD2A4B00221A70586800F09FFB08BD35
:1016C000264B00221A70586800F0BAFB08BD234B65
:1016D00000221A705868FEF7C7FF08BD1F4B002292
:1016E0001A70586800F004FB08BD1C4B00221A70E9
:1016F000586800F03FFB08BD184B00221A7058686C
:10170000FFF72AF808BD154B00221A70586800F040
:10171000FBF908BD114B00221A70586800F08EF9D1
:1017200008BD0E4B00221A70586800F0BFFA08BDC1
:101730000A4B00221A70586800F064F808BD074B85
:1017400000221A70586800F015F808BD034B0022FB
:101750001A70586800F030F808BD00BF88080020F3
:1017600008B5282202494FF40060FEF7D9FD08BDF4
:10177000602E002008B57B2000F0F8FB2E2000F042
:10178000F5FB002000F0F2FB482000F0EFFB2821E1
:10179000074800F0F9FB7630C0B200F0E7FB7D208F
:1017A00000F0E4FBFEF7C4FC024805F0C7FF08BDEB
:1017B000602E0020EC90000870B503460F4A2030E0
:1017C0001E685D689C68D968166055609460D16039
:1017D000103310328342F3D119685B681160536093
:1017E000282206494FF40060FEF7D8FD00F0DEFB2A
:1017F000FEF79EFC024805F0A1FF70BD602E0020A0
:10180000FC90000808B57B2000F0B0FB462000F0FB
:10181000ADFB002000F0AAFB412000F0A7FB402117
:10182000074800F0B1FB7938C0B200F09FFB7D2083
:1018300000F09CFBFEF77CFC024805F07FFF08BD32
:10184000202E00200C910008F8B517468AB10246F8
:10185000023900EB47000024002532F8023B31F842
:10186000026F03FB06F3E41845EBE3758242F4D103
:1018700001E0002400253A4600232046294605F0D1
:10188000CFFCF8BD2DE9F84F4B4B1B78002B00F037
:1018900091804A4B1D684A4C40F634032A46214643
:1018A0004848FEF7A7FE40F634032A46214646483C
:1018B000FEF7A0FE454B1B68012B0AD14FF40061D7
:1018C0004148FFF7C3FD424B9862586202223F4BEA
:1018D0001A6000224FF400613B48FFF7D7FD3C4CF3
:1018E0006060354D2E1D00224FF400613046FFF739
:1018F000CDFD2060626802FB00F3364981FB03E7FF
:10190000DB17C3EB6713A360334FBB684FEAE37B7E
:101910004FEAE27903FB09FE02FB0BEEA3FB022375
:101920007344D7F80CE012EB0E0243EBEE734FEA70
:10193000D23E4EEA434EC4F810E0D7F800A04FEA7A
:10194000EA79C3170AFB03FC00FB09CCAAFB0023BE
:1019500063447868121843EBE073D20B42EA4342C7
:10196000E26002FB0EFE81FB0E314FEAEE7ECEEB13
:10197000611EC4F814E0194A136823F001031360D0
:10198000174B196821F0010119604FF4086151608B
:1019900059600D49D160DE60116841F001011160AC
:1019A0001A6842F001021A6005224FF080431A8043
:1019B00000232B70BDE8F88F90080020B890000835
:1019C00074900008940800209419002084080020D6
:1019D000202E00201F85EB51602E002008000240C1
:1019E0005804024008B500224FF080431A820121BA
:1019F000034800F0B5FD0121024800F0B1FD08BD2B
:101A000000240140003C014008B5022001F040FEE6
:101A100000224FF080431A800122014B1A7008BD4A
:101A200090080020034A002313801384024A137095
:101A3000704700BF00080040942A002038B50022FB
:101A40002C4B1A802C4B02681A6082889A805B7932
:101A5000552B09D0294A00231380138402F5D8425C
:101A6000D360274A137040E0234B1B79082B0AD020
:101A70000A2B0FD0012B14D1204B01221A8548F6D6
:101A80009F429A8513E01D4B00221A8542F22732AD
:101A90009A850CE0194B00221A8541F61F429A855F
:101AA00005E0164B00221A8540F60F629A85134D09
:101AB000A88D114C628880B2A2FB000142F2107224
:101AC000002305F0ADFB013880B2A88622880D4BBB
:101AD0009A600B4B1B7843B903222A840022AA8404
:101AE00005222A800122064B1A7000F05FFAFEF7E9
:101AF0001FFB38BD00100040882E00200008004069
:101B0000942A00200074004008B5037813F0010FF8
:101B10004FF480510D4A14BF1161516113F0020F4F
:101B20004FF480710A4A14BF1161516113F0040F20
:101B30004FF48072054B14BF1A615A6100F036FAF7
:101B4000FEF7F6FA034805F0F9FD08BD000801406C
:101B5000000C01401891000838B5FEF7FFFA0F4A53
:101B60001368192BFCD10F220C4B1A600C4D4FF44B
:101B700000612846FFF758FC0A4CA0804FF4006132
:101B800005F59050FFF750FC20874FF4006105F5F4
:101B90001050FFF749FCA4F86C0038BD0400002089
:101BA000C82F0020902E0020234B1B68002B41D112
:101BB00070B5224D224C29462046FFF793FC05F1D3
:101BC000340104F59050FFF78DFC05F1680104F530
:101BD0001050FFF787FC05F19C0104F55850FFF702
:101BE0006DFB05F1D00104F59040FFF767FB05F5AB
:101BF000827104F5B440FFF761FBFEF7ABFE0E4DBA
:101C000069680022803904F5D840FFF73FFC0D4E8B
:101C1000F06169680022803904F5FC40FFF736FC6A
:101C20003062094B1B68B3610920FEF711FD0F23D9
:101C30002B6070BD704700BF04000020902E002074
:101C4000C82F0020202E0020FC2C002008B503689F
:101C5000B3F57A7F38BF4FF47A7346F2A8129342F5
:101C600028BF13460D498B6042688032B2F5086F79
:101C700028BF4FF408624A60094AB2FBF3F3013B04
:101C80009BB2084A9385FEF753FA00F08FF9FEF7EE
:101C90004FFA054805F052FD08BD00BF04000020C2
:101CA00040420F00002C01402891000808B57B201D
:101CB00000F05CF9462000F059F9002000F056F9D8
:101CC000402000F053F94021074800F05DF97A38D0
:101CD000C0B200F04BF97D2000F048F9FEF728FA79
:101CE000024805F02BFD08BD202E00203891000889
:101CF0002DE9F0410578B0F8016090F8038047794C
:101D00007B2000F033F9F81DC0B200F02FF900205D
:101D100000F02CF9102000F029F9EC19E4B2284663
:101D200000F024F91734E4B29FB14FEA480805EBFC
:101D3000C50506EB05250D4E06EB4506002530884A
:101D400000090444E4B200F011F901354644BD42F3
:101D5000F5D1204600F00AF97D2000F007F9FEF7E2
:101D6000E7F9034805F0EAFCBDE8F081C82F002040
:101D70004C91000838B505787B2000F0F7F83B203F
:101D800000F0F4F8002000F0F1F8112000F0EEF877
:101D9000284600F0EBF805F14C04E4B23423194670
:101DA000084803FB050000F0EFF82044C0B200F043
:101DB000DDF87D2000F0DAF8FEF7BAF9024805F008
:101DC000BDFC38BD902E002058910008044B1B68C4
:101DD000012B0CBF19220022014B1A60704700BF73
:101DE00004000020014B1868704700BF0400002069
:101DF000014B1860704700BF0400002008B5FEF7D3
:101E0000ADF9FEF769FC0320FEF722FC01220A4B24
:101E10001A60FEF78DF9FEF78BF9FEF789F9FEF7E8
:101E200087F9FEF785F900F0C1F8FEF781F903485C
:101E300005F084FC08BD00BF840800206491000800
:101E400008B5FEF79BF9FEF777FC0120FEF700FCD2
:101E5000FEF76EF900F0AAF8FEF76AF9014805F0FE
:101E60006DFC08BD74910008084940F2DF330B8017
:101E7000074A13788888D118087101331370054B0D
:101E800000229A841A820D221A807047003801407D
:101E9000982A00200014004070B5314B00221A82AD
:101EA0001A80304B1C78052C41D9A31E934215DDB6
:101EB0002D4A1C460023151F12F8011B7B2905D152
:101EC0001178E8180144C9787D2903D00133A34271
:101ED000F2D100E01C467F2C01DD28E00024621CCA
:101EE000204B99180E79B51EEDB283F80451AA4221
:101EF0000CDA181D02196B1E1844002312F8011F7A
:101F00000B44DBB28242F9D12A4600E00023154996
:101F10000A4412799A420AD1721FD2B2084681F855
:101F200004212144073100F5847005F00FFB0D4CAE
:101F300094F80421013A04F2091194F80801FFF71A
:101F400067FB4FF480720021201D05F075FB002314
:101F5000237084F8083184F80431BFF34F8F70BDCB
:101F600000140040982A00209C2A0020054A13886B
:101F700003F080039BB2002BF9D082B2014B9A8010
:101F8000704700BF0038014070B561B105460E468C
:101F90000644002415F8010B0444E4B2FFF7E6FF01
:101FA000AE42F7D100E00024204670BD08B57B208A
:101FB000FFF7DCFF0620FFF7D9FF0020FFF7D6FF71
:101FC0000120FFF7D3FF0720FFF7D0FF7D20FFF7A9
:101FD000CDFFFEF7ADF808BD10B50446FFF722FDB2
:101FE00023684FEA3343044A1362FFF7DFFF0348D5
:101FF00005F0A4FB10BD00BF0074004080910008F4
:1020000070B50646FFF70EFD0022294B1A80336893
:102010001CB2B4F5805FA8BF4FF48054254A1480E9
:102020001B14B3F5805FA8BF4FF480531D46538047
:1020300071688AB20B0C002A08BF01221D498A80F0
:10204000002B08BF0123CB801B48C66AC06A00B2C0
:102050000881211A91FBF2F212B222B90029CCBFF9
:1020600001224FF0FF3213498A81B1F90A20A91ADF
:1020700091FBF3F31BB223B90029CCBF01234FF02E
:10208000FF330C49CB8184420CBF01210021094B55
:10209000197495420CBF01220022064B5A74052286
:1020A000034B1A80FFF782FF044805F047FB70BD21
:1020B00000100040C8BF0020007400408C91000850
:1020C00000222B4B1A822B4B1B7C002B4AD1294A16
:1020D000B2F90C1013890B441BB21381002908DDDF
:1020E000B2F9002093420DDB224B1A8101221A74AF
:1020F00008E0204AB2F90020934203DC1D4B1A810C
:1021000001221A741B4BB3F908101B4A91605B7CC7
:102110000BBB184AB2F90E1053890B441BB2538102
:10212000002908DDB2F9022093420DDB114B5A81E0
:1021300001225A7408E00F4AB2F90220934203DCEC
:102140000C4B5A8101225A740A4BB3F90A100A4AFD
:1021500051615B7C5BB1074B1B7C43B10022044B9C
:102160001A807047034B5B7C002BD2D0F6E7704798
:1021700000100040C8BF00200074004082B03B4BFC
:102180001A6842F001021A605968394A0A405A60D6
:102190001A6822F0847222F480321A601A6822F4DB
:1021A00080221A605A6822F4FE025A604FF41F021D
:1021B0009A600022009201921A6842F480321A60FA
:1021C0001A46136803F400330193009B0133009314
:1021D000019B1BB9009BB3F5A06FF2D1234B1B6889
:1021E00013F4003F14BF012300230193019B012B33
:1021F00036D1204B1A6842F010021A601A6822F099
:1022000003021A601A6842F002021A60A3F58053B2
:102210005A685A605A685A605A6842F480625A6032
:102220005A6822F47C125A605A6842F4E8125A60E2
:102230001A6842F080721A601A46136813F0007F21
:10224000FBD00A4B5A6822F003025A605A6842F0E7
:1022500002025A601A46536803F00C03082BFAD1A5
:102260004FF00062044B9A6002B0704700100240C9
:102270000000FFF80020024000ED00E01D4B5B680D
:1022800003F00C03042B06D0082B08D013BB1A4A0A
:102290001A4B1A6021E0184A184B1A601DE0154AC3
:1022A00053685268C3F38343023312F4803F05D16D
:1022B000134A02FB03F3114A13600EE00D4A526801
:1022C00012F4003F14BF0E4A0B4A02FB03F30B4A01
:1022D000136002E0084A094B1A60064B5B68C3F3BF
:1022E0000313064A13441B79D9B21368CB40136019
:1022F000704700BF0010024000127A00100000205A
:1023000000093D00FEE700BF08B5134B134A9A428F
:102310000CD2581E801A20F003000430104B1844D1
:1023200053F8041B42F8041B8342F9D10D4B0E4AAB
:102330009A420BD2131D0D4AD21A22F003021A44FC
:10234000043B002143F8041B9342FBD1FFF716FF27
:10235000FDF7F4FE08BD00BF7C080020000000204F
:10236000B4910008E0BF00207C080020E3BF0020FB
:1023700040F0BF6040F40030014BD860704700BFB0
:1023800000ED00E0C378FBB1154BDA68D243C2F32D
:102390000222C2F10401437803FA01F10F23D34072
:1023A000827813400B4302781B01DBB20D490A44CB
:1023B00082F800330378580903F01F03012202FA60
:1023C00003F341F82030704703785A0903F01F03E4
:1023D000012101FA03F32032024941F8223070470B
:1023E00000ED00E000E100E021F0604121F07F011C
:1023F0000843014B9860704700ED00E021B1054AA9
:102400001369184310617047024A136923EA0000F8
:102410001061704700ED00E00428044A13680CBF07
:1024200043F0040323F004031360704710E000E05E
:1024300008B5154B98420AD101214FF4007002F003
:1024400051FC00214FF4007002F04CFC08BD0F4B12
:1024500098420AD101214FF4806002F043FC002130
:102460004FF4806002F03EFC08BD094B984209D150
:1024700001214FF4004002F035FC00214FF40040F0
:1024800002F030FC08BD00BF0024014000280140DC
:10249000003C014010B4436823F4702222F480729F
:1024A0000B6813430A7943EA022343608468CA68CD
:1024B0008B681A43084B234013434A7943EA42038B
:1024C0008360C36A23F470020B7C013BDBB242EAF7
:1024D0000353C36210BC7047FDF7F1FF0023036094
:1024E000037143718360C36001230374704700BFAD
:1024F00021B1836843F0010383607047836823F050
:1025000001038360704700BF21B1836843F4807387
:1025100083607047836823F480738360704700BFD3
:10252000C9B21AB14368194341607047436823EA4E
:1025300001014160704700BF836843F00803836076
:10254000704700BF8068C0F3C0007047836843F0E5
:1025500004038360704700BF8068C0F38000704749
:1025600021B1836843F4A00383607047836823F438
:10257000A0038360704700BF8068C0F3805070473D
:10258000436823F46043013943EA413343607047B1
:1025900021B1436843F4006343607047436823F408
:1025A00000634360704700BF70B409290DD9C66845
:1025B000A1F10A0404EB44040725A54026EA050519
:1025C00003FA04F42C43C4600AE0066901EB4104F9
:1025D0000725A54026EA050503FA04F42C43046107
:1025E000062A0CD8446B013A02EB82021F23934067
:1025F00024EA030301FA02F21A4342631AE00C2AA6
:102600000CD8046B073A02EB82021F23934024EAA2
:10261000030301FA02F21A4302630BE0C46A0D3AA3
:1026200002EB82021F23934024EA030301FA02F221
:102630001A43C26270BC704721B1836843F48013AF
:1026400083607047836823F480138360704700BF02
:10265000C06C80B2704700BF014B1868704700BF64
:102660004C24014021B1436843F4806343607047C8
:10267000436823F480634360704700BF21B143681F
:1026800043F4805343607047436823F480534360AE
:10269000704700BF836823F4E043194381607047AB
:1026A00021B1836843F4004383607047836823F457
:1026B00000438360704700BF21B1836843F4021375
:1026C00083607047836823F402138360704700BF00
:1026D0008068C0F34050704770B409290CD9C668AF
:1026E000A1F10A0404EB44040725A54026EA0505E8
:1026F000A3402B43C36009E0056901EB41060724B1
:10270000B44025EA0404B34023430361836B0232DF
:10271000C3F30154121BD2B202EB82021F24944075
:1027200023EA040301FA02F21343836370BC704787
:10273000836B23F44013013943EA015383637047E9
:1027400082B0002301930190019B19440191019BE8
:102750001A6002B0704700BF82B00023019301905D
:10276000019B283319440191019B186880B202B083
:10277000704700BF436823F4400323F400731943F8
:102780004160704741628262704700BF436823F036
:102790001F0319434160704728B1064A936843F408
:1027A000000393607047034A936823F40003936027
:1027B000704700BF002401400368194214BF012084
:1027C00000207047C9430160704700BF426803683A
:1027D00013EA112305D0C9B2114214BF0120002011
:1027E00070470020704700BF6FEA112101607047F9
:1027F00008B5012002F092FA002002F08FFA08BD1D
:10280000014B1860704700BF04860D42014B1860F1
:10281000704700BF00860D42014B1860704700BF33
:1028200088860D42044A938D23F460731B041B0CAD
:1028300018439085704700BF006C0040044A938D98
:1028400023F07F031B041B0C18439085704700BFC7
:10285000006C004082B000230193044B0193019B64
:1028600018440190019B196002B07047006C004051
:1028700082B000230193054B0193019B1844019002
:10288000019B188880B202B0704700BF006C004006
:10289000014B1868C0B27047A0860D42034A938E60
:1028A0009BB243F001039386704700BF006C004069
:1028B000014B1868C0B27047A4860D42034A938E3C
:1028C0009BB243F002039386704700BF006C004048
:1028D00008B50C4B98420AD101214FF0007002F06C
:1028E0000FFA00214FF0007002F00AFA08BD012132
:1028F0004FF0806002F004FA00214FF0806002F097
:10290000FFF908BD00640040036823F00203036080
:10291000036843F001030360436813F0010F07D11C
:102920004FF6FF73426812F0010F01D1013BF9D15C
:10293000436813F0010F5AD08B79012B03680CBF49
:1029400043F0800323F080030360CB79012B0368FD
:102950000CBF43F0400323F0400303600B7A012BCC
:1029600003680CBF43F0200323F0200303604B7A7D
:10297000012B03680CBF43F0100323F01003036026
:102980008B7A012B03680CBF43F0080323F0080384
:102990000360CB7A012B03680CBF43F0040323F0E0
:1029A000040303608A78CB781B0643EA82730A79B2
:1029B00043EA02434A7943EA02530A88013A13433D
:1029C000C361036823F001030360436813F0010F40
:1029D00007D04FF6FF73426812F0010F01D0013BA0
:1029E000F9D1406880F0010000F00100704700203C
:1029F000704700BF70B4837A012202FA03F3394AA8
:102A0000D2F8001241F00101C2F80012D2F81C12F3
:102A1000DC432140C2F81C12027BB2B9314AD2F821
:102A20000C122140C2F80C12817AC688458845EA0A
:102A30000645483142F83150857A8688018841EA56
:102A40000641483502EBC5025160027B012A16D1CE
:102A5000244AD2F80C121943C2F80C12817A068863
:102A6000458845EA0645483142F83150857A8688DE
:102A7000C18841EA0641483502EBC5025160C27A7D
:102A800032B91849D1F804222240C1F8042205E0E5
:102A90001449D1F804221A43C1F8042202892AB940
:102AA0001049D1F814221440C1F814420289012AB5
:102AB00005D10C49D1F814221A43C1F81422427BE3
:102AC000012A05D10749D1F81C221343C1F81C3251
:102AD000044AD2F8003223F00103C2F8003270BC7D
:102AE000704700BF0064004000238371C37103720C
:102AF00043728372C3728370C37003230371022312
:102B000043710123038070470D4BD3F8002242F03C
:102B10000102C3F80022D3F8002222F47C5222F0F2
:102B20000E02C3F80022D3F8002242EA0020C3F8C4
:102B30000002D3F8002222F00102C3F800227047FD
:102B40000064004021B1036843F4803303607047A0
:102B5000036823F480330360704700BFB1B103689A
:102B600043F080030360D0F8843143F48073C0F8ED
:102B70008431D0F8943143F48073C0F89431D0F8A4
:102B8000A43143F48073C0F8A4317047036823F084
:102B900080030360D0F8843123F48073C0F884315B
:102BA000D0F8943123F48073C0F89431D0F8A43174
:102BB00023F48073C0F8A431704700BFF0B4836879
:102BC00013F0806F4ED1836813F0006F4CD183688F
:102BD00013F0805F4AD1042556E0D3F880410F6896
:102BE0004A7A42EA47522243C3F8802109E0D3F8E7
:102BF00080414F6842EAC70222434C7A2243C3F81D
:102C000080218A7A02F00F028A72D3F8842122F09E
:102C10000F02C3F88421D3F884218C7A2243C3F8AD
:102C200084218C7B4A7B120442EA0462CC7A2243E0
:102C30000C7B42EA042200EB0610C0F888218C7C51
:102C40004A7C120442EA0462CC7B2243097C42EAB9
:102C50000122C0F88C21D3F8802142F00102C3F890
:102C6000802111E0002502E0012500E002252E462A
:102C700000EB0513D3F8802102F00102C3F8802194
:102C80000A7A002AA9D0B2E72846F0BC704700BFF4
:102C900001290DD011B102290ED015E0836823F06F
:102CA0007B4323F47F0323F47F4323F0FC030CE0F6
:102CB0008268114B134008E0836823F06F4323F4CC
:102CC0007C031B0C1B0400E000230C4A93420AD037
:102CD00001D873B105E0084A934206D0084A9342EE
:102CE00005D0002070470120704701207047012067
:102CF00070470220704700BF000300080300000473
:102D000000000310012908D011B102290AD0704730
:102D1000836843F0800383607047836843F4004313
:102D200083607047836843F400038360704700BF8B
:102D300010B400EB0114D4F8B03103F00403DBB29B
:102D4000137223B9D4F8B0315B0D136003E0D4F8EB
:102D5000B031DB085360D4F8B03103F00203537292
:102D6000D4F8B43103F00F039372D4F8B4311B0AD2
:102D7000D37400EB0113D3F8B841D472D3F8B8413F
:102D8000240A1473D3F8B841240C5473D3F8B8410F
:102D9000240E9473D3F8BC41D473D3F8BC41240AF5
:102DA0001474D3F8BC41240C5474D3F8BC311B0EFA
:102DB000937421B9C36843F02003C36003E003693F
:102DC00043F02003036110BC704700BF21B9C36802
:102DD00043F02003C3607047036943F0200303619D
:102DE000704700BF19B9C06800F00300704701299F
:102DF00006BF006900F0030000207047D9B90368DE
:102E000023F0030343F001030360436803F003036B
:102E1000012B08D04FF6FF72436803F00303012B28
:102E200001D0013AF8D1406800F00300012814BF36
:102E3000002001207047012916D1036823F0030305
:102E40000360436813F0030F07D04FF6FF73426827
:102E500012F0030F01D0013BF9D1436813F0030FC7
:102E60000CBF01200020704702291BD1036823F00A
:102E7000030343F002030360436803F00303022BE0
:102E800008D04FF6FF72436803F00303022B01D012
:102E9000013AF8D1406800F00300022814BF002076
:102EA0000120704700207047036823F0030343F0BC
:102EB00002030360406800F00300022814BF0020F2
:102EC00001207047036823F002030360436813F096
:102ED000020F07D04FF6FF73426812F0020F01D0C5
:102EE000013BF9D1406880F00200C0F34000704718
:102EF000806900F0700070478069000E704700BF65
:102F00008069C0F3074070471AB1436919434161B2
:102F10007047436923EA01014161704711F4700F62
:102F200007D08369C3F313030B4214BF01200020B1
:102F3000704711F0807F07D04368C3F313030B423F
:102F400014BF01200020704711F0006F07D0836884
:102F5000C3F313030B4214BF01200020704711F08C
:102F6000007F14BFC3680369C3F313030B4214BF8C
:102F700001200020704700BF0B4B994202D1002373
:102F800083617047C1F3130311F0007F01D0C36068
:102F9000704711F0806F01D00361704711F0006F2E
:102FA00014BF8360436070477000F03043690B4288
:102FB0006DD0402948D00ED8042933D004D8012937
:102FC00021D0022928D064E0102933D0202937D01D
:102FD00008295ED12AE0B1F5006F4DD009D8B1F5CE
:102FE000007F41D0B1F5806F42D0B1F5807F50D1E4
:102FF00036E0B1F5803F2BD0B1F5003F2CD0B1F5D4
:10300000004F46D13FE0806800F0013020F0807032
:10301000003018BF01207047C06810F0030018BFCF
:1030200001207047C068C0F3C0007047C068C0F39B
:1030300000107047006910F0030018BF01207047AE
:103040000069C0F3C00070470069C0F3001070470A
:103050004068C0F3C00070474068C0F3001070477C
:10306000806900F0010070478069C0F3400070473C
:103070008069C0F380007047836913F0700F14BF3C
:103080000120002070474068C0F380007047002096
:1030900070470020704700BFB1F5807F37D00CD853
:1030A000082925D004D801291CD004291DD0704737
:1030B000202920D0402921D07047B1F5006F2FD0B2
:1030C00006D8B1F5007F25D0B1F5806F25D07047C7
:1030D000B1F5803F15D0B1F5003F15D0B1F5004FE7
:1030E00027D122E0134B836070470823C3607047E9
:1030F0001023C360704708230361704710230361E6
:1031000070470823436070471023436070470423CF
:103110004360704704234360704704234360704753
:1031200000238361042343607047002383610423E9
:10313000436070470101010008B501214FF0804054
:1031400001F0DEFD00214FF0804001F0D9FD08BD07
:1031500010B4064C236803F0F3010388428813433C
:103160000B439BB2236010BC704700BF0078004047
:10317000044B186020B9044A136813F0010FFBD107
:10318000704700BF00000F4200780040014B1860FC
:10319000704700BF04000F42014B5860704700BFEA
:1031A00000780040014B9860704700BF00780040F5
:1031B000014B5861704700BF00780040014B98698F
:1031C000C0B27047007800400122014B1A6070477E
:1031D00000020F42014B1860704700BF04020F420B
:1031E00020F07F43020F1ABF1B0C044A044A1268E6
:1031F000134214BF01200020704700BF0C7800402C
:1032000010780040054A13691169C04320F003009B
:1032100003F0020303430B40136170470078004042
:10322000044A13681269104214BFC3F3400000201F
:10323000704700BF00780040054A13691169C04318
:1032400020F0030003F0020303430B4013617047B7
:10325000007800400122014B9A6070470030024024
:10326000014B1860186870470030024041B10346B6
:1032700000EB8100044953F8042B0A608342FAD121
:10328000014B1868704700BF00300240014B1868BE
:10329000704700BF00300240014B1871704700BFFB
:1032A00000300240014B1879704700BF00300240E7
:1032B00008B501214FF0005001F022FD00214FF030
:1032C000005001F01DFD08BD30B40A4D2A6840F6DB
:1032D000FE73834022EA03030C684A6814438A6839
:1032E0001443CA68224302FA00F01843286030BC35
:1032F000704700BF00740040002303604360836098
:10330000C360704739B108490B68012202FA00F026
:1033100018430860704704490B68012202FA00F064
:1033200023EA0000086070470074004041B1094979
:103330000B684FF4805202FA00F01843086070479F
:1033400004490B684FF4805202FA00F023EA0000AF
:10335000086070470074004041B109494B6800099A
:10336000012202FA00F018434860704704494B6894
:103370000009012202FA00F023EA000048607047C9
:103380000074004028B1064A536843F003035360B9
:103390007047034A536823F003035360704700BF2C
:1033A000007400402AB1064A136881401943116035
:1033B0007047034A1368814023EA01011160704796
:1033C0000074004082B000230193054B0193019BE0
:1033D000083318440190019B196002B0704700BF88
:1033E0000074004082B000230193054B0193019BC0
:1033F000143318440190019B196002B0704700BF5C
:103400000074004008280CBF42EA012242EA01424F
:10341000014BC250704700BF2074004082B00023AF
:103420000193064B0193019B2C3303EB9000019019
:10343000019B186880B202B0704700BF0074004062
:10344000014B1868000C7047002004E0024B18681C
:10345000C0F30B00704700BF002004E021B1054B12
:103460005A68104358607047024A536823EA0000C4
:1034700050607047002004E0036823F001031B0440
:103480001B0C03600023036043608360C360364B02
:10349000984205D1354A536843F00F035360704793
:1034A000334B984205D1314A536843F0F0035360DF
:1034B0007047304B984205D12C4A536843F47063EF
:1034C000536070472C4B984205D1284A536843F407
:1034D000704353607047294B984205D1234A536883
:1034E00043F4702353607047254B984205D11F4A1F
:1034F000536843F4700353607047224B984205D1E0
:103500001A4A536843F07063536070471E4B9842E9
:1035100005D11E4A536843F00F03536070471C4B9C
:10352000984205D1194A536843F0F003536070473D
:10353000184B984205D1154A536843F470635360A1
:103540007047154B984205D1104A536843F47043B5
:1035500053607047114B984204D10C4A536843F4AE
:1035600070235360704700BF080002400000024013
:103570001C0002403000024044000240580002405B
:103580006C00024080000240080402400004024037
:103590001C0402403004024044040240580402402B
:1035A00010B4036823F4FF4323F070038C680A6AA5
:1035B00014430A6914434A6914438A691443CA6963
:1035C00014434A6A14438A6A224313430360CB6854
:1035D00043600B6883604B68C36010BC704700BFDA
:1035E0000023036043608360C360036143618361C0
:1035F000C361036243628362704700BF21B1036805
:1036000043F0010303607047036823F001031B04C8
:103610001B0C0360704700BF1AB1036819430160B7
:103620007047036823EA01010160704741607047F9
:10363000406880B2704700BF10F0805F14BF044B39
:10364000044B1B68034214BF01200020704700BFD9
:10365000000402400000024010F0805F14BF024BE3
:10366000024B5860704700BF000402400000024057
:1036700010F0805F14BF044B044B1B68034214BF5F
:1036800001200020704700BF0004024000000240FB
:1036900010F0805F14BF024B024B5860704700BFB0
:1036A0000004024000000240044B00221A605A60ED
:1036B0009A60DA60024A5A61704700BF0004014014
:1036C000FFFF0F008379002B34D010B4204B1A6811
:1036D000016822EA01021A605A68016822EA0102BE
:1036E0005A60027902F1804202F582321468016860
:1036F000214311609A68016822EA01029A60DA683F
:10370000016822EA0102DA604379102B09D1104BDB
:10371000996802680A439A60D96802680A43DA60C5
:1037200013E003F1804303F58233196802680A430A
:103730001A600AE0037903F1804303F582331A68C3
:10374000016822EA01021A60704710BC704700BF8E
:10375000000401400023036003710C224271837155
:10376000704700BF024A136918431061704700BFD9
:1037700000040140034B5B69034214BF0120002099
:10378000704700BF00040140014B5861704700BF03
:1037900000040140054B1A685B69184204D00242DC
:1037A00014BF012000207047002070470004014032
:1037B000014B5861704700BF00040140034A136881
:1037C00003F0380318431060704700BF0020024028
:1037D000044B1A6822F008021A601A681043186035
:1037E000704700BF00200240044B1A6822F010020C
:1037F0001A601A6810431860704700BF002002402A
:10380000034B044A5A6002F188325A60704700BF85
:103810000020024023016745034B044A5A6002F12D
:1038200088325A60704700BF00200240230167457C
:10383000024A136943F0800313617047002002407D
:10384000024A136943F0800313617047002002406D
:10385000014BD8698008704700200240014B186A6C
:10386000704700BF00200240024BD869C0F34000FF
:10387000704700BF00200240024B1868C0F34010A0
:10388000704700BF0020024021B1054B1A69104368
:1038900018617047024A136923EA000010617047FB
:1038A00000200240012804D1054BD86900F0010036
:1038B0007047034BDB68184214BF0120002070479B
:1038C00000200240014BD860704700BF002002403A
:1038D0000B4BDB6813F0010F0DD1094BDB6813F0C4
:1038E000040F0AD1064BDB6803F01003002B14BF52
:1038F000032004207047012070470220704700BF5A
:10390000002002400B4BDB6813F0010F0DD1094B77
:10391000DB6813F0040F0AD1064BDB6803F01003D9
:10392000002B14BF032004207047012070470220A1
:10393000704700BF0020024010B50446FFF7E2FFC9
:10394000012808D15CB1FFF7DDFF013C012802D15D
:10395000002CF8D103E0002C08BF052010BD052085
:1039600010BD00BF38B505464FF43020FFF7E4FF27
:10397000042813D10A4C236943F0020323616561D3
:10398000236943F0400323614FF43020FFF7D4FF55
:10399000236923F00203DB04DB0C236138BD00BF85
:1039A0000020024010B54FF43020FFF7C5FF042877
:1039B00012D10A4C236943F004032361236943F0C5
:1039C000400323614FF43020FFF7B6FF236923F053
:1039D0000403DB04DB0C236110BD00BF00200240A8
:1039E00010B5FFF741FF00280CBFA52400244FF4B9
:1039F0003020FFF7A1FF042837D11C4B1C4A9A60E6
:103A000002F188329A601A6942F020021A611A693A
:103A100042F040021A614FF43020FFF78DFF042876
:103A20001AD1124B1A6922F02002D204D20C1A6168
:103A30001A6942F010021A610E4B1C804FF40050BC
:103A4000FFF77AFF052810D0084A136923F0100306
:103A5000DB04DB0C136110BD052806D0034A136993
:103A600023F01003DB04DB0C136110BD00200240C7
:103A70002301674500F8FF1F30B583B005460C46AB
:103A8000002301934FF40050FFF756FF042824D180
:103A9000134A136943F001031361A3B22B804FF45F
:103AA0000050FFF749FF042810D102350195019B12
:103AB000240C1C804FF40050FFF73EFF084A1369A6
:103AC00023F00103DB04DB0C136106E0044A1369F5
:103AD00023F00103DB04DB0C136103B030BD00BF36
:103AE0000020024070B504460D464FF40050FFF729
:103AF00023FF04280FD1084E336943F001033361DB
:103B000025804FF40050FFF717FF336923F00103BE
:103B1000DB04DB0C336170BD0020024038B5054684
:103B20000C464FF40050FFF707FF042818D10D4B47
:103B30000D4A9A6002F188329A601A6942F01002C6
:103B40001A61A4B22C804FF40050FFF7F5FE05284F
:103B500006D0044A136923F01003DB04DB0C136165
:103B600038BD00BF002002402301674538B5054637
:103B70004FF40050FFF7E0FE0446042844D1ED4323
:103B8000E9B2224B224A9A6002F188329A601A699D
:103B900042F010021A61FF2907D01E4B19814FF421
:103BA0000050FFF7C9FE042820D1C5F30723FF2BDF
:103BB00007D0184A53814FF40050FFF7BDFE042888
:103BC00014D1C5F30743FF2B07D0124A93814FF45A
:103BD0000050FFF7B1FE042808D12D0EFF2D08D0AC
:103BE0000C4BDD814FF40050FFF7A6FE052801D1F4
:103BF00009E02046054A136923F01003DB04DB0CBF
:103C00001361044600E00446204638BD002002400F
:103C10002301674500F8FF1F10B504464FF430201C
:103C2000FFF78AFE04283DD11F4B204A9A6002F11B
:103C300088329A601A6942F020021A611A6942F0C9
:103C400040021A614FF43020FFF776FE042820D19D
:103C5000154B1A6922F02002D204D20C1A611A699B
:103C600042F010021A611CB10022114B1A8002E0CE
:103C7000A5220F4B1A804FF43020FFF75DFE052878
:103C800010D0094A136923F01003DB04DB0C136125
:103C900010BD052806D0044A136923F02003DB0475
:103CA000DB0C136110BD00BF0020024023016745FB
:103CB00000F8FF1F70B504460E461546124B134A16
:103CC0009A6002F188329A604FF40050FFF734FE98
:103CD000042817D10C4A136943F01003136144F010
:103CE000F80232432A430A4B5A804FF40050FFF740
:103CF00023FE052806D0044A136923F01003DB04D1
:103D0000DB0C136170BD00BF00200240230167453A
:103D100000F8FF1F10B50446FFF7F4FD012808D195
:103D20005CB1FFF7EFFD013C012802D1002CF8D176
:103D300003E0002C08BF052010BD052010BD00BF0A
:103D400010B54FF43020FFF7E5FF042812D10A4CDC
:103D5000236943F004032361236943F04003236193
:103D60004FF43020FFF7D6FF236923F00403DB0470
:103D7000DB0C236110BD00BF00200240034628B9C0
:103D800043F2DB014FF02042116005E043F2D20123
:103D90004FF0204242F82010581C6FF070424FF054
:103DA000204141F8202001F5827141F8232070471D
:103DB00010280CBF054B064B18221A6040225A608F
:103DC0004FF0FC329A60DA60704700BF600000A0DC
:103DD000800000A0054B18221A6000225A604FF0A4
:103DE000FC329A60DA601A61704700BFA00000A040
:103DF00010B40168426883681A43C3681A430369B0
:103E00001A4343691A4383691A43C3691A43036A0D
:103E10001A43436A1A43836A1A43C36A1A43036BF9
:103E200013434FF0204242F821308368082B06D11B
:103E300003689B0013441A6842F040021A6001684C
:103E40000131426B146893692343546843EA0413B5
:103E5000946843EA0423D46843EA0443146943EAB8
:103E60000453526943EA02634FF0204242F8213082
:103E7000C36AB3F5804F14D10168826B10689369EF
:103E80000343506843EA0013906843EA0023106933
:103E900043EA0053526943EA0263064A42F821307A
:103EA00005E002686FF07041024B43F8221010BC2D
:103EB000704700BF040100A030B442688368134318
:103EC00043F00803C2681A4303691343426943EA93
:103ED0004223826943EA4232C1694C688B681B0401
:103EE00043EA04230C682343CD6843EA0565046A6A
:103EF0006168A3681B0443EA012321680B43E1685E
:103F000043EA0163016810290CBF034903490A60B1
:103F10008D60CB6030BC7047600000A0800000A0C6
:103F200010B44268036843F0100343EA42238268F6
:103F300043EA423313490B60C4686368A268120401
:103F400042EA032223681343E26843EA02638B6078
:103F500004696368A268120442EA032223681343D7
:103F6000E26843EA0263CB604069436882681204F6
:103F700042EA032203681343C26843EA02630B6107
:103F800010BC7047A00000A010B400230360022200
:103F900042608360C360036143618361C361036204
:103FA0004FF4805242624FF400528262C362036354
:103FB000416B0F220A60416B4A60446BFF21A16094
:103FC000446BE260446B2261446B6261446BA361A9
:103FD000846B2260846B6260846BA160816BCA60B9
:103FE000816B0A61816B4A61826B936110BC70477F
:103FF00010230360002343608360C3600361436157
:104000008361C269FC231360C2695360C269936013
:10401000C269D360026A1360026A5360026A9360E5
:10402000026AD360704700BF00230360436083606F
:10403000C268FC231360C2685360C2689360C268A0
:10404000D360026913600269536002699360026978
:10405000D360426913604269536042699360426968
:10406000D360704739B1800000F12040036843F00D
:10407000010303607047800000F120400268024B9A
:1040800013400360704700BFFEFF0F0041B11028CE
:104090000CBF084A084A136843F0040313607047D2
:1040A00010280CBF034A044A1168044B0B401360EC
:1040B000704700BF600000A0800000A0FBFF0F0061
:1040C00028B1064A136843F0040313607047034A9B
:1040D0001168034B0B401360704700BFA00000A0A5
:1040E000FBFF0F0041B110280CBF084A084A1368B3
:1040F00043F040031360704710280CBF034A044A82
:104100001168044B0B401360704700BF600000A0B3
:10411000800000A0BFFF0F0010280CBF014B024B16
:1041200058697047600000A0800000A07AB1102894
:1041300004D1104A5368194351607047B0F5807F2D
:104140000CBF0D4A0D4A536819435160704710283F
:1041500005D1084A536823EA010151607047B0F560
:10416000807F0CBF044A054A536823EA010151606D
:10417000704700BF600000A0800000A0A00000A069
:10418000102802D1064B5B6805E0B0F5807F0CBFBC
:10419000044B054B5B680B4214BF012000207047A5
:1041A000600000A0800000A0A00000A0102805D1A1
:1041B000074A536823EA010151607047B0F5807FD8
:1041C0000CBF044A044A536823EA01015160704756
:1041D000600000A0800000A0A00000A0102802D174
:1041E000094B5B6805E0B0F5807F0CBF074B084BBF
:1041F0005B680B4205D013EAD10314BF01200020F5
:1042000070470020704700BF600000A0800000A041
:10421000A00000A0102805D1074A536823EAD10165
:1042200051607047B0F5807F0CBF044A044A536860
:1042300023EAD10151607047600000A0800000A017
:10424000A00000A008B52B4B984208D10121042002
:1042500000F048FD0021042000F044FD08BD264B7D
:10426000984208D10121082000F03CFD00210820DF
:1042700000F038FD08BD214B984208D101211020E3
:1042800000F030FD0021102000F02CFD08BD1C4B7B
:10429000984208D10121202000F024FD0021202097
:1042A00000F020FD08BD174B984208D101214020A5
:1042B00000F018FD0021402000F014FD08BD124B55
:1042C000984208D10121802000F00CFD00218020BF
:1042D00000F008FD08BD0D4B984209D101214FF4B3
:1042E000807000F0FFFC00214FF4807000F0FAFCB9
:1042F00008BD00BF00080140000C01400010014053
:104300000014014000180140001C01400020014041
:1043100008B50121084600F0E5FC0021012000F06D
:10432000E1FC08BDF0B5CB7803F00F0613F0100FD9
:104330001CBF8B781E430B78F3B10568002301275F
:104340004FF00F0C07FA03F20C8832EA04040FD185
:104350009C000CFA04FE25EA0E0506FA04F4254337
:10436000CC78282C01D1426102E0482C08BF0261C0
:104370000133082BE6D105600B88FF2B20D9456857
:10438000002301274FF00F0E03F1080207FA02F293
:104390000C8832EA04040FD19C000EFA04FC25EAD2
:1043A0000C0506FA04F42543CC78282C08BF42619A
:1043B000CC78482C08BF02610133082BE4D145605A
:1043C000F0BD00BF4FF6FF73038002238370042308
:1043D000C37070478368194214BF012000207047E2
:1043E000806880B2704700BFC368194214BF0120C3
:1043F00000207047C06880B2704700BF01617047FD
:10440000416170470AB1016170474161704700BF67
:10441000C160704741F48033836181618361836946
:1044200083697047054A136823F07F031B041B0C44
:10443000194341EA00101060704700BF00000140BE
:10444000014B1860704700BF1C00204230B40028A8
:10445000184BB4BFDB695B6882B200F44014B4F55A
:10446000401F07D123F07063124D6C6824F0706414
:104470006C6013E010F4801F08D0C0F303450324E0
:10448000AC4023EA040343F0706307E0440D2401C9
:1044900002FA04F423EA040343F0706319B1410DF6
:1044A00009018A4013430028024AB4BFD361536014
:1044B00030BC70470000014010B401F003039B00C2
:1044C00001F0FC0101F1804101F580318C680F227F
:1044D0009A4024EA02028A608A6898401043886001
:1044E00010BC7047014B1860704700BFDC002042D1
:1044F00008B50C4B98420AD101214FF4001000F08E
:10450000FFFB00214FF4001000F0FAFB08BD012171
:104510004FF4800000F0F4FB00214FF4800000F025
:10452000EFFB08BD00540040F0B587B004460D46CF
:10453000868826F03F063604360C01A800F050FBB2
:10454000039B2E48A0FB0320800C87B23E43A6802D
:10455000218821F001010904090C21802A682849D9
:104560008A4209D85200B3FBF2F39BB2032B98BFE7
:1045700004230137278427E0EE884BF6FF718E4233
:1045800005D102EB4201B3FBF1F39BB208E002EB71
:10459000820202EB8202B3FBF2F39BB243F480434C
:1045A000C3F30B020AB943F0010343F400434FF491
:1045B000967200FB02F0134A82FB0012C017C0EB98
:1045C000A210013080B22084A38323889BB243F0E1
:1045D0000103238023889BB223F4816323F002012B
:1045E000AB886A8913430B439BB22380AA892B892A
:1045F00013439BB2238107B0F0BD00BF83DE1B4392
:10460000A0860100D34D621041F28833036000237D
:1046100083804BF6FF72C280038143814FF4804355
:104620008381704729B103889BB243F00103038063
:104630007047038823F001031B041B0C03807047A1
:1046400029B183889BB243F40063838070478388D9
:1046500023F400631B041B0C8380704729B18388FB
:104660009BB243F4805383807047838823F4805344
:104670001B041B0C8380704729B103889BB243F451
:10468000807303807047038823F480731B041B0C22
:104690000380704729B103889BB243F40073038001
:1046A0007047038823F400731B041B0C03807047BE
:1046B00029B103889BB243F4806303807047038869
:1046C00023F480631B041B0C0380704783899BB217
:1046D00001F0FE0123F0FE030B438381704700BF0E
:1046E00029B183899BB243F0010383817047838999
:1046F00023F001031B041B0C8381704729B103883D
:104700009BB243F0400303807047038823F04003CB
:104710001B041B0C0380704722B183889BB2194392
:104720008180704783889BB223EA010181807047B2
:1047300001827047008AC0B2704700BF12B141F0D9
:10474000010101E001F0FE0189B20182704700BF62
:1047500082B0002301930190019B19440191019BB8
:10476000188880B202B0704739B103886FEA4343BA
:104770006FEA53439BB2038070470388C3F30E0371
:1047800003807047B1F5006F05D103889BB243F4F5
:10479000006303807047038823F400631B041B0C31
:1047A00003807047B1F5005F05D103889BB243F4E5
:1047B000005303807047038823F400531B041B0C31
:1047C0000380704729B103889BB243F48053038070
:1047D0007047038823F480531B041B0C038070472D
:1047E000B1F5006F05D103889BB243F400630380E9
:1047F0007047038823F400631B041B0C038070477D
:1048000029B103889BB243F02003038070470388DB
:1048100023F020031B041B0C03807047008BC0F3A4
:104820000720704729B103889BB243F0100303802F
:104830007047038823F010031B041B0C0380704790
:1048400029B903889BB243F0800303807047038833
:1048500023F080031B041B0C03807047B1F5804FCD
:1048600006D0838B23F480431B041B0C8383704787
:10487000838B9BB243F4804383837047838A9BB2CC
:10488000008B43EA004321F07F4203EA02008842A2
:1048900014BF002001207047838A9BB2008B43EA3B
:1048A000004020F07F40704782B0002301930093C6
:1048B00000900B0F019321F07F41019B1BB1009BE6
:1048C0001433009303E0090C009B18330093009B02
:1048D0001B68194214BF0120002002B0704700BFBE
:1048E000C94389B28182704783889BB2828A92B21F
:1048F0000A4207D003F4E06313EA114314BF012016
:104900000020704700207047C94389B281827047F8
:10491000014B1860704700BF00300040014B5860E9
:10492000704700BF00300040014B9860704700BFE7
:10493000003000404AF6AA22014B1A60704700BFBF
:10494000003000404CF6CC42014B1A60704700BF6B
:1049500000300040034BDB68184214BF01200020E8
:10496000704700BF0030004008B501214FF0805073
:1049700000F0C6F900214FF0805000F0C1F908BDE9
:10498000014B1860704700BF20000E42014B1860B9
:10499000704700BF10000E42034A136823F0E00383
:1049A00018431060704700BF00700040014B186052
:1049B000704700BFA0000E420A4A136823F00303A9
:1049C00018431060084A136943F004031361012976
:1049D00001D130BF00E020BF034A136923F0040374
:1049E000136170470070004000ED00E0074B1A684B
:1049F00042F004021A601A6842F002021A60044A85
:104A0000136943F00403136130BF70470070004026
:104A100000ED00E0034B5B68034214BF012000205F
:104A2000704700BF00700040024A136843EA8000EC
:104A300010607047007000400D4B1A6842F0010290
:104A40001A6059680B4A0A405A601A6822F0847248
:104A500022F480321A601A6822F480221A605A689E
:104A600022F4FE025A604FF41F029A60704700BFA2
:104A7000001002400000FFF80D4B1A6822F480324B
:104A80001A601A6822F480221A60B0F5803F03D0C1
:104A9000B0F5802F06D07047054A136843F4803381
:104AA00013607047024A136843F4A02313607047F1
:104AB00000100240034A136823F0F80343EAC000E1
:104AC0001060704700100240014B1860704700BF33
:104AD00000004242034A536823F47C1319430843FD
:104AE0005060704700100240014B1860704700BFD3
:104AF00060004242034A536823F0030318435060A6
:104B0000704700BF00100240024B586800F00C00D4
:104B1000704700BF00100240034A536823F0F003BF
:104B200018435060704700BF00100240034A5368AA
:104B300023F4E06318435060704700BF0010024048
:104B4000034A536823F4605343EAC000506070473F
:104B50000010024021B1054B1A78104318707047BD
:104B6000024A137823EA00001070704709100240CF
:104B7000014B1860704700BFD8004242034A536897
:104B800023F4404318435060704700BF00100240B8
:104B9000084B00221A701A70012802D0042804D091
:104BA00070470122034B1A7070470522014B1A709F
:104BB000704700BF20100240014B1860704700BFD3
:104BC00080044242024A136A18431062704700BFD1
:104BD00000100240014B1860704700BF3C04424285
:104BE00010B4274B5B6803F00C03042B05D0082B93
:104BF00006D0F3B9234B03601DE0224B03601AE09B
:104C00001F4A53685268C3F38343023312F4803F50
:104C100004D11D4A02FB03F303600CE0184A5268FA
:104C200012F4003F14BF184A164A02FB03F3036054
:104C300001E0144B0360124A5368C3F30313134C8F
:104C4000E35CD9B20368CB4043605168C1F30221F1
:104C5000615CC9B223FA01F181605168C1F3C221DC
:104C6000615CC9B2CB40C3605268C2F38132224456
:104C7000127CD2B2B3FBF2F3036110BC704700BFE9
:104C80000010024000127A0000093D0024000020BC
:104C900021B1054B5A69104358617047024A536964
:104CA00023EA0000506170470010024021B1054B1B
:104CB0009A69104398617047024A936923EA000099
:104CC000906170470010024021B1054BDA69104332
:104CD000D8617047024AD36923EA0000D061704767
:104CE0000010024021B1054BDA681043D8607047CC
:104CF000024AD36823EA0000D060704700100240E7
:104D000021B1054B1A69104318617047024A1369B3
:104D100023EA00001061704700100240014B186048
:104D2000704700BF40044242014B1860704700BF0B
:104D30004C004242014B1870704700BF0710024000
:104D40004309012B02D1074B1B6804E0022B054BE2
:104D50000CBF1B6A5B6A00F01F0023FA00F000F032
:104D6000010070470010024010B582B0002301938B
:104D700031242046FFF7E4FF019B01330193019B9F
:104D8000B3F5A06F01D00028F3D03120FFF7D8FF92
:104D9000003018BF012002B010BD00BF024A536AA4
:104DA00043F080735362704700100240034B9B68CE
:104DB000184214BF01200020704700BF00100240BD
:104DC000014B1870704700BF0A10024029B1064A13
:104DD00013889BB2184310807047034A13889BB214
:104DE00023EA00001080704700280040034A93889F
:104DF0009BB243F010039380704700BF002800402F
:104E0000034A938823F010031B041B0C9380704704
:104E1000002800400849088B82B28B8B9BB2088B1C
:104E200080B2824204D08B8B9BB243EA0040704731
:104E300043EA0240704700BF0028004010B5044616
:104E4000FFF7D4FF220C034B1A83A4B29C83FFF715
:104E5000D7FF10BD0028004010B50446FFF7C6FF7D
:104E6000C4F30342034B1A81A4B29C81FFF7C8FF2D
:104E700010BD00BF0028004010B50446FFF7B6FF84
:104E8000220C034B1A84A4B29C84FFF7B9FF10BD17
:104E900000280040044B188A00F00F009B8A9BB248
:104EA00043EA0040704700BF00280040034A93884F
:104EB00003F020039BB2002BF9D07047002800407C
:104EC000064A938823F008031B041B0C93809388E5
:104ED00003F008039BB2002BF9D070470028004074
:104EE000034B9B88184214BF01200020704700BF6D
:104EF00000280040034A93889BB223EA0000908078
:104F0000704700BF00280040074A93889BB2128870
:104F1000104206D0184010F0FF0F14BF01200020EF
:104F200070470020704700BF00280040034A938864
:104F30009BB223EA00009080704700BF0028004029
:104F4000064B00221A605A609A60DA605A629A62CE
:104F5000DA6203499963DA63704700BF0080014059
:104F6000FF07C00010B40A4C6268816843681943A7
:104F7000C3681943036819430369194322F4FD43C5
:104F800023F07F030B43027D1343636010BC704723
:104F90000080014000230375036043608360C360A9
:104FA00003617047014B1860704700BFA00030429A
:104FB000014B1860704700BF00800140024B186829
:104FC00000F00300704700BF0080014021B1054B95
:104FD000DA6B1043D8637047024AD36B23EA0000B0
:104FE000D063704700800140014B1860704700BFDC
:104FF0008C05304210B40368084A9360D36823F4E8
:10500000FF6323F00703446881680C43C1680C43C5
:10501000016921430B43D36010BC704700800140FD
:105020000023036043608360C3600361704700BF77
:10503000014B1869C0B270470080014082B0002364
:105040000193034B03440193019B186802B070471E
:105050001480014010B4036808494B6243688B62B6
:10506000CB6A23F0F7028468C3681C4303692343B7
:10507000406903431343CB6210BC7047008001407A
:105080004FF0FF330360002343608360C36003611C
:1050900043617047014B186B704700BF00800140AF
:1050A000014BD3F88000704700800140014BC3F8EA
:1050B0008000704700800140014B986C704700BF32
:1050C00000800140014B1860704700BFA0053042CE
:1050D000014B1860704700BFA4053042014B1860B7
:1050E000704700BFA8053042014B1860704700BFF1
:1050F000AC053042014B1860704700BFAC01304234
:10510000014B1860704700BFB001304210F0010F32
:105110000CBF01220022014B1A607047B4013042DB
:10512000014B1860704700BFB8013042034B5B6B06
:10513000034214BF01200020704700BF00800140DF
:10514000014B9863704700BF00800140034B5B6BCD
:10515000034214BF01200020704700BF00800140BF
:10516000014B9863704700BF0080014008B5154BA4
:1051700098420AD101214FF48050FFF7B3FD00217E
:105180004FF48050FFF7AEFD08BD0F4B98420AD197
:1051900001214FF48040FFF7B3FD00214FF4804020
:1051A000FFF7AEFD08BD094B984209D101214FF42C
:1051B0000040FFF7A5FD00214FF40040FFF7A0FDE0
:1051C00008BD00BF0030014000380040003C0040F6
:1051D00010B4038803F441540A884B8813438A8827
:1051E0001343CA8813430A8913434A8913438A899C
:1051F0001343CA89134323439BB20380838B23F455
:1052000000631B041B0C83830B8A038210BC704752
:10521000F0B587B005460C46838B9BB223F47B63C5
:1052200023F00F039BB2838302230384868BB6B2E1
:105230008B68022B26D08B88002B0CBF01270227FE
:1052400001A8FFF7CDFC019AE388B3F5007F0EBFFC
:10525000130A7B01B2FBF3F303EB83035B00A26849
:10526000B3FBF2F305339BB2124AA2FB0323DB0824
:1052700003F001025B08991E89B2FD2905D81202CC
:1052800092B204E00022022301E000220223134331
:10529000E28813432B8423881E4346F40066638808
:1052A0003343A2881343A28913439BB2AB8307B055
:1052B000F0BD00BFCDCCCCCC0023038043808380E5
:1052C000C380038143818381C381072303827047A5
:1052D0000023038043808380C38002228260838115
:1052E000704700BF29B103889BB243F0400303809D
:1052F0007047038823F040031B041B0C0380704796
:1053000029B1838B9BB243F4806383837047838B83
:1053100023F480631B041B0C83837047090901235A
:1053200003FA01F189B222B183889BB219438180CB
:10533000704783889BB223EA01018180704700BFD8
:1053400022B183889BB219438180704783889BB2C6
:1053500023EA01018180704781817047808980B292
:10536000704700BF4FF6FF63994205D003889BB298
:1053700043F4807303807047038823F480731B0415
:105380001B0C0380704700BF29B183889BB243F098
:10539000040383807047838823F004031B041B0CE1
:1053A00083807047038823F400631B041B0C038075
:1053B00003889BB219430180704700BF03889BB2EA
:1053C00043F480530380704729B103889BB243F4B0
:1053D000005303807047038823F400531B041B0C05
:1053E00003807047012914BF008B808A80B2704708
:1053F000008A80B2704700BFB1F5804F05D10388A5
:105400009BB243F4804303807047038823F48043B6
:105410001B041B0C038070470389194214BF012031
:1054200000207047C94389B20181704710B4838856
:105430009CB2028992B201F00F00012383401A420C
:1054400008D00909012303FA01F10C4214BF1846E0
:10545000002000E0002010BC704700BF01F00F01E9
:10546000012303FA01F1C94389B20181704700BFEA
:1054700030B4048C24F001042404240C0484048B30
:10548000A4B2058CADB224F0F304224342EA031324
:105490009AB2124CA04211D0114B98420ED0B0F1EA
:1054A000804F0BD0A3F59833984207D003F5806363
:1054B000984203D003F58063984205D125F002039A
:1054C00043F00103194304E025F00A0343F001030C
:1054D00019430283018430BC704700BF002C014097
:1054E0000034014030B4058C25F010052D042D0C3E
:1054F0000584058B048CA4B225F440752D052D0D73
:1055000045EA022242EA03339BB2134A904212D088
:1055100002F5006290420ED0B0F1804F0BD0A2F5A0
:105520009832904207D002F58062904203D002F593
:105530008062904207D124F0200444F0100444EA31
:10554000011189B204E024F0A00444F010042143C6
:105550000383018430BC7047002C014008B56F4BB9
:1055600098420AD101214FF40060FFF7BBFB0021F4
:105570004FF40060FFF7B6FB08BDB0F1804F08D1D3
:1055800001210846FFF7BCFB00210120FFF7B8FB13
:1055900008BD634B984208D101210220FFF7B0FB00
:1055A00000210220FFF7ACFB08BD5E4B984208D1FA
:1055B00001210420FFF7A4FB00210420FFF7A0FB3A
:1055C00008BD594B984208D101210820FFF798FBEC
:1055D00000210820FFF794FB08BD544B984208D1E6
:1055E00001211020FFF78CFB00211020FFF788FB22
:1055F00008BD4F4B984208D101212020FFF780FBC6
:1056000000212020FFF77CFB08BD4A4B98420AD1BD
:1056100001214FF40050FFF765FB00214FF40050CB
:10562000FFF760FB08BD444B98420AD101214FF4BB
:105630000020FFF757FB00214FF40020FFF752FB3B
:1056400008BD3E4B98420AD101214FF48010FFF76C
:1056500049FB00214FF48010FFF744FB08BD384B95
:1056600098420AD101214FF40010FFF73BFB0021C3
:105670004FF40010FFF736FB08BD324B984208D1BB
:1056800001214020FFF73CFB00214020FFF738FBC1
:1056900008BD2D4B984208D101218020FFF730FB37
:1056A00000218020FFF72CFB08BD284B98420AD12F
:1056B00001214FF48070FFF723FB00214FF480702D
:1056C000FFF71EFB08BD224B98420AD101214FF47F
:1056D0008030FFF707FB00214FF48030FFF702FB1B
:1056E00008BD1C4B98420AD101214FF40030FFF74E
:1056F000F9FA00214FF40030FFF7F4FA08BD164B19
:10570000984209D101214FF48020FFF7EBFA0021E4
:105710004FF48020FFF7E6FA08BD00BF002C0140DF
:105720000004004000080040000C00400010004051
:105730000014004000340140004C01400050014082
:105740000054014000180040001C004000200040B0
:1057500000400140004401400048014003889BB2E2
:10576000244A904212D002F5006290420ED0B0F16D
:10577000804F0BD0A2F59832904207D002F580629C
:10578000904203D002F58062904203D123F070036F
:105790004A881343184A904225D002F5806290420D
:1057A00021D023F440739BB2CA88134303808B88B3
:1057B00083850B8803850F4B98420FD003F5006358
:1057C00098420BD003F54063984207D003F58063FD
:1057D000984203D003F58063984201D10B7A038687
:1057E00001238382704703808B8883850B88038520
:1057F000F6E700BF002C01400010004070B4038C9D
:1058000023F001031B041B0C0384028C8588ADB2BA
:10581000038B23F073031B041B0C0E881E4322F022
:1058200002021204120C0B894C8823431A4393B2D0
:10583000144A90420FD002F5006290420BD002F55C
:105840004062904207D002F58062904203D002F598
:10585000806290420ED123F008034A89134323F05B
:1058600004038A88134325F440758C89CA8922432E
:105870001543ADB285800683CA888286038470BCD6
:10588000704700BF002C014030B4038C23F010039C
:105890001B041B0C0384038C8588ADB2028B22F49D
:1058A000E6421204120C0C8842EA042294B223F05D
:1058B00020031B041B0C0A8943EA02134A8843EAAB
:1058C00002139BB2114A904203D002F5006290424B
:1058D00015D123F080039BB24A8943EA02124FF6A6
:1058E000BF7313408A8843EA02139BB225F44065D4
:1058F0008A8945EA8205CA8945EA8205ADB2858072
:105900000483CA880287038430BC7047002C01409E
:1059100030B4038C23F480731B041B0C0384038CAE
:105920008488A4B2828B22F073021204120C0D88B8
:10593000154323F400731B041B0C0A8943EA02235A
:105940004A8843EA02239BB2114A904203D002F5EF
:105950000062904215D123F400639BB24A8943EA66
:1059600002224FF6FF3313408A8843EA02239BB298
:1059700024F440548A8944EA0214CA8944EA02148D
:10598000A4B284808583CA888287038430BC704730
:10599000002C014030B4038C23F480531B041B0CF7
:1059A0000384038C8488A4B2828B22F4E64212041E
:1059B000120C0D8842EA052292B223F400531B0414
:1059C0001B0C0D8943EA05334D8843EA05339BB22E
:1059D0000A4DA84203D005F50065A84205D124F47C
:1059E00080448D8944EA8514A4B284808283CA8865
:1059F000A0F84020038430BC704700BF002C014059
:105A00000A884B8813438A881343CA8813430A8938
:105A100013434A8913438A8913439BB2A0F8443045
:105A2000704700BF4FF6FF73838000230380C3805D
:105A300043800372704700BF00230380438083804C
:105A4000C380038143818381C38170470023038026
:105A5000438001228280C38003817047002303803A
:105A600043808380C380038143818381704700BF6B
:105A700029B103889BB243F0010303807047038878
:105A800023F001031B041B0C0380704749B1B0F8DD
:105A900044306FEA43436FEA53439BB2A0F844306B
:105AA0007047B0F84430C3F30E03A0F84430704799
:105AB00022B183899BB219438181704783899BB24C
:105AC00023EA010181817047818270470A43A0F86F
:105AD0004820704722B183899BB219438181704766
